S00D0000747269616C2E73726563FB
S11300000C9434000C9446000C9446000C94460066
S11300100C9446000C9446000C9446000C94460044
S11300200C9446000C9446000C9446000C94790001
S11300300C9446000C9446000C9446000C94460024
S11300400C9446000C9446000C9446000C94460014
S11300500C9446000C9446000C9446000C94460004
S11300600C9446000C94460011241FBECFEFD8E038
S1130070DEBFCDBF21E0A0E0B1E001C01D92A230FF
S1130080B207E1F70E9448000C94B8000C940000F9
S113009084B18C6284B985B1837D85B980E58CBDDA
S11300A02A9885E58EBD0DB407FEFDCF85E58EBD8E
S11300B00DB407FEFDCF2A9A2A98F894E1E8F0E0FF
S11300C080818460808388E09DE39093890080939D
S11300D08800808188608083EFE6F0E08081826020
S11300E080837894509A589AFFCF0DB407FEFDCFC1
S11300F008951F920F920FB60F9211242F933F93DE
S11301004F935F936F937F938F939F93AF93BF931B
S1130110EF93FF939BB181E089278BB92A98809153
S1130120000190910101907899231CF401979F6F2D
S113013001968EBD0E94750080910001909101018D
S1130140019690930101809300012A9A2A98FF91C5
S1130150EF91BF91AF919F918F917F916F915F913B
S11301604F913F912F910F900FBE0F901F901895B4
S1070170F894FFCF2D
S9030000FC
