S00D0000747269616C2E73726563FB
S11300000C9434000C9446000C9446000C94460066
S11300100C9446000C9446000C9446000C94460044
S11300200C9446000C9446000C9446000C94750005
S11300300C9446000C9446000C9446000C94460024
S11300400C9446000C9446000C9446000C94460014
S11300500C9446000C9446000C9446000C94460004
S11300600C9446000C94460011241FBECFEFD8E038
S1130070DEBFCDBF21E0A0E0B1E001C01D92A03001
S1130080B207E1F70E9448000C9487000C9400002A
S113009084B18C6284B985B1837D85B980E58CBDDA
S11300A02A988CE38EBD0DB407FEFDCF83EC8EBD84
S11300B00DB407FEFDCF2A9A2A98F894E1E8F0E0FF
S11300C080818460808388E09DE39093890080939D
S11300D08800808188608083EFE6F0E08081826020
S11300E080837894509A589AFFCF1F920F920FB63C
S11300F00F9211248F939F939BB181E089278BB931
S11301009F918F910F900FBE0F901F901895F894A8
S1050110FFCF1B
S9030000FC
